:020000040000FA
:100000000C9463000C948B000C948B000C9479027C
:100010000C9479020C9479020C948B000C948B0054
:100020000C948B000C948B000C948B000C948B0024
:100030000C948B000C948B000C948B000C948B0014
:100040000C942F020C948B000C948B000C948B005E
:100050000C948B000C948B000C948B000C948B00F4
:100060000C948B000C948B000000000023002600F1
:10007000290000000000240027002A0000000000E2
:10008000250028002B0004040404040404040202D4
:100090000202020203030303030301020408102007
:1000A0004080010204081020010204081020000012
:1000B0000008000201000003040700000000000027
:1000C00000008A043F0511241FBECFEFD8E0DEBF39
:1000D000CDBF21E0AEE1B1E001C01D92AF3AB20761
:1000E000E1F711E0A0E0B1E0ECEDFAE002C005902C
:1000F0000D92AE31B107D9F710E0C2E6D0E004C0EE
:100100002197FE010E945B05C136D107C9F70E9405
:100110003D030C9461050C9400003FB7F894809166
:10012000860190918701A0918801B091890126B53F
:10013000A89B05C02F3F19F00196A11DB11D3FBF1F
:10014000BA2FA92F982F8827BC01CD01620F711DEE
:10015000811D911D42E0660F771F881F991F4A95E8
:10016000D1F708958F929F92AF92BF92CF92DF9274
:10017000EF92FF926B017C010E948D004B015C01AC
:10018000C114D104E104F104B9F00E948D00681992
:1001900079098A099B09683E73408105910580F3BE
:1001A00021E0C21AD108E108F10888EE880E83E048
:1001B000981EA11CB11CE4CFFF90EF90DF90CF9070
:1001C000BF90AF909F908F9008951F93CF93DF9330
:1001D000FC01EB01142F81E080938C0160938D0171
:1001E000D0938E01808180938F01828180939001D2
:1001F00083818093910180918A0190918B01DC0130
:10020000ED91FC910680F781E02D099580918A019E
:1002100090918B01DC01ED91FC910190F081E02D3A
:1002200065E5099580918A0190918B01DC01ED9142
:10023000FC910190F081E02D65E5099580918A019E
:1002400090918B01DC01ED91FC910190F081E02D0A
:1002500068E0099580918A0190918B01DC01ED9114
:10026000FC910190F081E02D63E0099580918A0175
:1002700090918B01DC01ED91FC910280F381E02DE6
:1002800046E050E06CE871E00995112341F0BE01B1
:1002900090E080E0DF91CF911F910C94B200DF914C
:1002A000CF911F910895AF92BF92CF92DF92EF92BC
:1002B000FF920F931F93CF93DF936C017B018B0110
:1002C000040F151FEB015E01AE18BF08C017D10760
:1002D00059F06991D601ED91FC910190F081E02DEA
:1002E000C6010995892B79F7C501DF91CF911F913F
:1002F0000F91FF90EF90DF90CF90BF90AF90089557
:1003000020916001309161012817390771F49091B3
:100310005E0180915F01981741F0E0915E01F0E08D
:10032000E25EFE4F808190E008958FEF9FEF089589
:100330000895EF92FF920F931F93CF93DF93DC0109
:100340005C96ED90FC905D97E114F10479F481E006
:1003500090E013969C938E93129790E080E0DF914B
:10036000CF911F910F91FF90EF9008955196ED91CD
:10037000FC91529750968C915097982F90950FB76B
:100380005E962C915E97122F127021FD6095F89465
:100390002081112319F1282B2083E7012197F1F700
:1003A00028E0462F50E0308160FF1AC0382B3083A0
:1003B000E7012197F1F7BA0175956795215089F703
:1003C000112381F08081892380830FBF5C968D91FA
:1003D0009C910197F1F781E090E0C1CF2923DCCF18
:1003E0003923E5CF9081892BEFCF209160013091A7
:1003F00061012817390761F480915F0120915E0146
:1004000090E0805C9F4F821B91098F73992708951C
:1004100090E080E0089520916001309161012817FB
:100420003907B9F490915E0180915F01981789F0C6
:10043000E0915E01F0E0E25EFE4F808120915E017E
:1004400030E02F5F3F4F2F73332720935E0190E002
:1004500008958FEF9FEF089590E080E008951F9238
:100460000F920FB60F9211242F933F938F939F9368
:10047000AF93BF938091820190918301A0918401F9
:10048000B09185013091810123E0230F2D3758F57C
:100490000196A11DB11D209381018093820190934B
:1004A0008301A0938401B09385018091860190918E
:1004B0008701A0918801B09189010196A11DB11D0C
:1004C0008093860190938701A0938801B09389015E
:1004D000BF91AF919F918F913F912F910F900FBE40
:1004E0000F901F90189526E8230F0296A11DB11DAD
:1004F000D2CF1F920F920FB60F9211242F933F93DA
:100500004F935F936F937F938F939F93AF93BF931B
:10051000EF93FF93E0916001F0916101309749F012
:10052000A685B7858585968D91FF14C09C918923FA
:10053000A1F4FF91EF91BF91AF919F918F917F9126
:100540006F915F914F913F912F910F900FBE0F9040
:100550001F9018959C91892361F7A389B4899C9178
:100560008589809589238C93868997890197F1F7EE
:10057000608D718DA685B785558538E020E0CB016B
:100580000197F1F7822F90E095958795282F4C9150
:10059000452309F02068315091F7868D81FD209523
:1005A00080915F0190E001968F73992730915E01F1
:1005B000381799F0A0915F01B0E0A25EBE4F2C9376
:1005C00080935F01828D938D0197F1F7A389B489A0
:1005D0008C919589892B8C93ACCF868D8160868F89
:1005E000F1CF90E0FC01E255FF4F2491FC01E6566B
:1005F000FF4F3491FC01EA57FF4FE491EE23C9F01D
:10060000222339F0233001F1A8F4213019F12230EE
:1006100029F1F0E0EE0FFF1FE458FF4FA591B491D0
:100620008FB7F894EC91611126C030953E233C932E
:100630008FBF08952730A9F02830C9F0243049F73A
:10064000809180008F7D03C0809180008F778093A0
:100650008000DFCF84B58F7784BDDBCF84B58F7DFD
:10066000FBCF8091B0008F778093B000D2CF809184
:10067000B0008F7DF9CF3E2BDACFCF93DF93CDB78C
:10068000DEB760970FB6F894DEBF0FBECDBF78948B
:1006900084B5826084BD84B5816084BD85B5826087
:1006A00085BD85B5816085BD80916E008160809338
:1006B0006E001092810080918100826080938100A1
:1006C00080918100816080938100809180008160B1
:1006D000809380008091B10084608093B10080910C
:1006E000B00081608093B00080917A008460809334
:1006F0007A0080917A00826080937A0080917A00FB
:10070000816080937A0080917A00806880937A007B
:100710001092C10010927D0110927C0110927B0119
:1007200010927A0110927901109278018DE991E08E
:1007300090937F0180937E0190916E01963108F035
:1007400047C02DEB30E030937901209378012BE9FD
:1007500031E030937B0120937A012CE231E0309339
:100760007D0120937C012091680084E0983048F05E
:1007700031E09E3008F430E081E001C0880F3A9506
:10078000EAF7822B809368002DE630E0983050F035
:100790002BE630E09E3030F02CE630E0963110F061
:1007A00030E020E03093760120937501292F30E06E
:1007B000983008F0A2C081E001C0880F9A95EAF74E
:1007C0008093770180917E0190917F010197F1F7ED
:1007D00080917C0190917D01892B49F1E09160012C
:1007E000F091610181E0E236F80709F1309739F0C4
:1007F000A389B4899C918589809589238C93809164
:1008000080018E7F8093800110925F0110925E01C3
:1008100082E691E09093610180936001E09175011F
:10082000F0917601808190917701892B808381E01E
:1008300090E09E878D87188A1F8680910001909195
:100840000101A0910201B091030189879A87AB87CA
:10085000BC878091040190910501A0910601B0919F
:1008600007018D839E83AF83B887809108019091A3
:100870000901A0910A01B0910B0189839A83AB838E
:10088000BC8340E068EE73E0CE010D960E94E50067
:1008900068EE73E080E090E00E94B20040E068EE15
:1008A00073E0CE0109960E94E50068EE73E080E0F7
:1008B00090E00E94B20041E060ED77E0CE01059645
:1008C0000E94E50068EE73E080E090E00E94B200D4
:1008D00041E060ED77E0CE0101960E94E50068EE10
:1008E00073E080E090E00E94B20000E010E00115AB
:1008F0001105E9F30E940000FACF9E3040F4285021
:10090000310981E001C0880F2A95EAF759CF2E50AE
:100910003109F7CF0F931F93CF93DF9310926501A7
:100920001092640188EE93E0A0E0B0E0809366014D
:1009300090936701A0936801B093690180E191E011
:100940009093630180936201109279011092780173
:1009500010927B0110927A0110927D0110927C011D
:1009600010927F0110927E01609180016E7F6D7FF9
:10097000609380016695617081E0682783E00E9442
:10098000F1024DE950E0FA01649189E890E0FC0140
:100990002491222399F030E0220F331FF901EE5801
:1009A000FF4FA591B491F901E458FF4F259134917F
:1009B0002FB7F8943C91632B6C932FBFFA014491AD
:1009C00040937201FC018491E82FF0E0EE0FFF1FCD
:1009D000E458FF4F85919491909374018093730133
:1009E0000CE910E0F8012491C8E8D0E0FE01849100
:1009F0008823C9F090E0880F991FFC01EE58FF4F43
:100A0000A591B491FC01E458FF4F459154913FB733
:100A1000F8949C91822F809598239C93FA01908161
:100A2000892380833FBF8091800181FD04C061E004
:100A300082E00E94F10282E080936E01F80104914D
:100A400000936F01FE01C491EC2FF0E0EE0FFF1F49
:100A5000E859FF4F859194919093710180937001B3
:100A600082E691E090938B0180938A011092AD0110
:100A70001092AC01DF91CF911F910F91089580E109
:100A800091E0909363018093620180916001909165
:100A900061018256914071F4E0917501F091760107
:100AA00090818091770180958923808310926101E4
:100AB000109260010895EE0FFF1F0590F491E02D54
:100AC000099410E0C2E6D0E004C0FE010E945B057C
:100AD0002196C336D107C9F7F894FFCF0100E80388
:100AE00006004B000600520300000000990153016C
:0A0AF0002C029801F5010B028001B1
:107E0000112484B714BE81FFF0D085E080938100F7
:107E100082E08093C00088E18093C10086E0809377
:107E2000C20080E18093C4008EE0C9D0259A86E02C
:107E300020E33CEF91E0309385002093840096BBD3
:107E4000B09BFECF1D9AA8958150A9F7CC24DD24C4
:107E500088248394B5E0AB2EA1E19A2EF3E0BF2EE7
:107E6000A2D0813461F49FD0082FAFD0023811F036
:107E7000013811F484E001C083E08DD089C08234E0
:107E800011F484E103C0853419F485E0A6D080C0E4
:107E9000853579F488D0E82EFF2485D0082F10E0AE
:107EA000102F00270E291F29000F111F8ED06801E7
:107EB0006FC0863521F484E090D080E0DECF843638
:107EC00009F040C070D06FD0082F6DD080E0C81688
:107ED00080E7D80618F4F601B7BEE895C0E0D1E017
:107EE00062D089930C17E1F7F0E0CF16F0E7DF06D8
:107EF00018F0F601B7BEE89568D007B600FCFDCFD4
:107F0000A601A0E0B1E02C9130E011968C91119780
:107F100090E0982F8827822B932B1296FA010C0160
:107F200087BEE89511244E5F5F4FF1E0A038BF0790
:107F300051F7F601A7BEE89507B600FCFDCF97BE46
:107F4000E89526C08437B1F42ED02DD0F82E2BD052
:107F50003CD0F601EF2C8F010F5F1F4F84911BD097
:107F6000EA94F801C1F70894C11CD11CFA94CF0C13
:107F7000D11C0EC0853739F428D08EE10CD085E9AC
:107F80000AD08FE07ACF813511F488E018D01DD067
:107F900080E101D065CF982F8091C00085FFFCCF94
:107FA0009093C60008958091C00087FFFCCF809118
:107FB000C00084FD01C0A8958091C6000895E0E648
:107FC000F0E098E1908380830895EDDF803219F02E
:107FD00088E0F5DFFFCF84E1DECF1F93182FE3DFCA
:107FE0001150E9F7F2DF1F91089580E0E8DFEE27F6
:047FF000FF270994CA
:027FFE00040479
:00000001FF
